{
  "_format": "hh-sol-artifact-1",
  "contractName": "CastSpellPortal",
  "sourceName": "contracts/CastSpellPortal.sol",
  "abi": [
    {
      "inputs": [],
      "stateMutability": "payable",
      "type": "constructor"
    },
    {
      "anonymous": false,
      "inputs": [
        {
          "indexed": true,
          "internalType": "address",
          "name": "from",
          "type": "address"
        },
        {
          "indexed": false,
          "internalType": "uint256",
          "name": "timestamp",
          "type": "uint256"
        },
        {
          "indexed": false,
          "internalType": "string",
          "name": "message",
          "type": "string"
        }
      ],
      "name": "NewSpellCast",
      "type": "event"
    },
    {
      "inputs": [
        {
          "internalType": "address",
          "name": "input",
          "type": "address"
        },
        {
          "internalType": "string",
          "name": "keyPrefix",
          "type": "string"
        },
        {
          "internalType": "string[]",
          "name": "sourceArray",
          "type": "string[]"
        },
        {
          "internalType": "string",
          "name": "_msg",
          "type": "string"
        }
      ],
      "name": "castSpell",
      "outputs": [],
      "stateMutability": "nonpayable",
      "type": "function"
    },
    {
      "inputs": [],
      "name": "getAllSpellsCast",
      "outputs": [
        {
          "components": [
            {
              "internalType": "address",
              "name": "spellCaster",
              "type": "address"
            },
            {
              "internalType": "string",
              "name": "message",
              "type": "string"
            },
            {
              "internalType": "uint256",
              "name": "timestamp",
              "type": "uint256"
            }
          ],
          "internalType": "struct CastSpellPortal.Spell[]",
          "name": "",
          "type": "tuple[]"
        }
      ],
      "stateMutability": "view",
      "type": "function"
    },
    {
      "inputs": [
        {
          "internalType": "address",
          "name": "input",
          "type": "address"
        },
        {
          "internalType": "string",
          "name": "_msg",
          "type": "string"
        }
      ],
      "name": "getSpell",
      "outputs": [],
      "stateMutability": "nonpayable",
      "type": "function"
    },
    {
      "inputs": [],
      "name": "getSpellName",
      "outputs": [
        {
          "internalType": "string",
          "name": "",
          "type": "string"
        }
      ],
      "stateMutability": "view",
      "type": "function"
    },
    {
      "inputs": [],
      "name": "getTotalSpells",
      "outputs": [
        {
          "internalType": "uint256",
          "name": "",
          "type": "uint256"
        }
      ],
      "stateMutability": "view",
      "type": "function"
    },
    {
      "inputs": [
        {
          "internalType": "address",
          "name": "",
          "type": "address"
        }
      ],
      "name": "lastSpellCastAt",
      "outputs": [
        {
          "internalType": "uint256",
          "name": "",
          "type": "uint256"
        }
      ],
      "stateMutability": "view",
      "type": "function"
    },
    {
      "inputs": [
        {
          "internalType": "string",
          "name": "spell",
          "type": "string"
        }
      ],
      "name": "setSpell",
      "outputs": [],
      "stateMutability": "nonpayable",
      "type": "function"
    }
  ],
  "bytecode": "0x60806040526040518060e001604052806040518060400160405280600681526020017f52657061726f000000000000000000000000000000000000000000000000000081525081526020016040518060400160405280600581526020017f416363696f00000000000000000000000000000000000000000000000000000081525081526020016040518060400160405280601281526020017f57696e6761726469756d204c6576696f7361000000000000000000000000000081525081526020016040518060400160405280600781526020017f457069736b65790000000000000000000000000000000000000000000000000081525081526020016040518060400160405280600981526020017f416775616d656e7469000000000000000000000000000000000000000000000081525081526020016040518060400160405280600781526020017f50726f7465676f0000000000000000000000000000000000000000000000000081525081526020016040518060400160405280601181526020017f46696e69746520496e63616e746174656d0000000000000000000000000000008152508152506003906007620001bc92919062000302565b506040518060200160405280600081525060049080519060200190620001e492919062000369565b50620002306040518060400160405280601f81526020017f59657220612077697a61726421202e2e2e736d61727420636f6e7472616374008152506200023660201b620009451760201c565b620005b4565b620002d6816040516024016200024d9190620004c8565b6040516020818303038152906040527f41304fac000000000000000000000000000000000000000000000000000000007bffffffffffffffffffffffffffffffffffffffffffffffffffffffff19166020820180517bffffffffffffffffffffffffffffffffffffffffffffffffffffffff8381831617835250505050620002d960201b60201c565b50565b60008151905060006a636f6e736f6c652e6c6f679050602083016000808483855afa5050505050565b82805482825590600052602060002090810192821562000356579160200282015b82811115620003555782518290805190602001906200034492919062000369565b509160200191906001019062000323565b5b509050620003659190620003fa565b5090565b82805462000377906200053e565b90600052602060002090601f0160209004810192826200039b5760008555620003e7565b82601f10620003b657805160ff1916838001178555620003e7565b82800160010185558215620003e7579182015b82811115620003e6578251825591602001919060010190620003c9565b5b509050620003f6919062000422565b5090565b5b808211156200041e576000818162000414919062000441565b50600101620003fb565b5090565b5b808211156200043d57600081600090555060010162000423565b5090565b5080546200044f906200053e565b6000825580601f1062000463575062000484565b601f01602090049060005260206000209081019062000483919062000422565b5b50565b60006200049482620004ec565b620004a08185620004f7565b9350620004b281856020860162000508565b620004bd81620005a3565b840191505092915050565b60006020820190508181036000830152620004e4818462000487565b905092915050565b600081519050919050565b600082825260208201905092915050565b60005b83811015620005285780820151818401526020810190506200050b565b8381111562000538576000848401525b50505050565b600060028204905060018216806200055757607f821691505b602082108114156200056e576200056d62000574565b5b50919050565b7f4e487b7100000000000000000000000000000000000000000000000000000000600052602260045260246000fd5b6000601f19601f8301169050919050565b61184680620005c46000396000f3fe608060405234801561001057600080fd5b506004361061007d5760003560e01c80639fc4bf091161005b5780639fc4bf09146100ec578063a086683714610108578063de2dd19c14610124578063fb9b4e44146101425761007d565b806357ffa3b9146100825780637c74045d146100b25780638b759f74146100ce575b600080fd5b61009c60048036038101906100979190610de4565b610160565b6040516100a9919061135a565b60405180910390f35b6100cc60048036038101906100c79190610e0d565b610178565b005b6100d661028e565b6040516100e3919061121e565b60405180910390f35b61010660048036038101906101019190610e61565b610320565b005b610122600480360381019061011d9190610f0c565b61078f565b005b61012c6107a9565b60405161013991906111fc565b60405180910390f35b61014a6108fa565b604051610157919061135a565b60405180910390f35b60056020528060005260406000206000915090505481565b61028a826040518060400160405280600681526020017f5350454c4c5300000000000000000000000000000000000000000000000000008152506003805480602002602001604051908101604052809291908181526020016000905b828210156102805783829060005260206000200180546101f390611577565b80601f016020809104026020016040519081016040528092919081815260200182805461021f90611577565b801561026c5780601f106102415761010080835404028352916020019161026c565b820191906000526020600020905b81548152906001019060200180831161024f57829003601f168201915b5050505050815260200190600101906101d4565b5050505084610320565b5050565b60606004805461029d90611577565b80601f01602080910402602001604051908101604052809291908181526020018280546102c990611577565b80156103165780601f106102eb57610100808354040283529160200191610316565b820191906000526020600020905b8154815290600101906020018083116102f957829003601f168201915b5050505050905090565b600061034c84866040516020016103389291906111bf565b6040516020818303038152906040526109de565b905060008384518361035e91906115fe565b81518110610395577f4e487b7100000000000000000000000000000000000000000000000000000000600052603260045260246000fd5b6020026020010151905042603c600560003373ffffffffffffffffffffffffffffffffffffffff1673ffffffffffffffffffffffffffffffffffffffff168152602001908152602001600020546103ec91906114a3565b1061042c576040517f08c379a0000000000000000000000000000000000000000000000000000000008152600401610423906112fa565b60405180910390fd5b42600560003373ffffffffffffffffffffffffffffffffffffffff1673ffffffffffffffffffffffffffffffffffffffff16815260200190815260200160002081905550600160008082825461048291906114a3565b9250508190555060006064600154424461049c91906114a3565b6104a691906114a3565b6104b091906115fe565b90506104f16040518060400160405280601681526020017f52616e646f6d20232067656e6572617465643a2025730000000000000000000081525082610a11565b80600181905550603281101561063d576105406040518060400160405280600b81526020017f25732068617320776f6e2100000000000000000000000000000000000000000081525033610aad565b60006509184e72a00090504781111561058e576040517f08c379a00000000000000000000000000000000000000000000000000000000081526004016105859061131a565b60405180910390fd5b60003373ffffffffffffffffffffffffffffffffffffffff16826040516105b4906111e7565b60006040518083038185875af1925050503d80600081146105f1576040519150601f19603f3d011682016040523d82523d6000602084013e6105f6565b606091505b505090508061063a576040517f08c379a00000000000000000000000000000000000000000000000000000000081526004016106319061133a565b60405180910390fd5b50505b6106468261078f565b61066a6040518060600160405280602681526020016117eb60269139338487610b49565b600260405180606001604052803373ffffffffffffffffffffffffffffffffffffffff16815260200186815260200142815250908060018154018082558091505060019003906000526020600020906003020160009091909190915060008201518160000160006101000a81548173ffffffffffffffffffffffffffffffffffffffff021916908373ffffffffffffffffffffffffffffffffffffffff1602179055506020820151816001019080519060200190610729929190610c14565b506040820151816002015550503373ffffffffffffffffffffffffffffffffffffffff167faccb5308378d4e4866486a42ee5a65044c6168f4d808d627aa1ccb6b8215dd9a428660405161077e929190611375565b60405180910390a250505050505050565b80600490805190602001906107a5929190610c14565b5050565b60606002805480602002602001604051908101604052809291908181526020016000905b828210156108f157838290600052602060002090600302016040518060600160405290816000820160009054906101000a900473ffffffffffffffffffffffffffffffffffffffff1673ffffffffffffffffffffffffffffffffffffffff1673ffffffffffffffffffffffffffffffffffffffff16815260200160018201805461085690611577565b80601f016020809104026020016040519081016040528092919081815260200182805461088290611577565b80156108cf5780601f106108a4576101008083540402835291602001916108cf565b820191906000526020600020905b8154815290600101906020018083116108b257829003601f168201915b50505050508152602001600282015481525050815260200190600101906107cd565b50505050905090565b600061093d6040518060400160405280601f81526020017f5765206861766520256420746f74616c207370656c6c73206361737465642100815250600054610a11565b600054905090565b6109db81604051602401610959919061121e565b6040516020818303038152906040527f41304fac000000000000000000000000000000000000000000000000000000007bffffffffffffffffffffffffffffffffffffffffffffffffffffffff19166020820180517bffffffffffffffffffffffffffffffffffffffffffffffffffffffff8381831617835250505050610beb565b50565b6000816040516020016109f191906111a8565b6040516020818303038152906040528051906020012060001c9050919050565b610aa98282604051602401610a279291906112ca565b6040516020818303038152906040527f9710a9d0000000000000000000000000000000000000000000000000000000007bffffffffffffffffffffffffffffffffffffffffffffffffffffffff19166020820180517bffffffffffffffffffffffffffffffffffffffffffffffffffffffff8381831617835250505050610beb565b5050565b610b458282604051602401610ac3929190611240565b6040516020818303038152906040527f319af333000000000000000000000000000000000000000000000000000000007bffffffffffffffffffffffffffffffffffffffffffffffffffffffff19166020820180517bffffffffffffffffffffffffffffffffffffffffffffffffffffffff8381831617835250505050610beb565b5050565b610be584848484604051602401610b639493929190611270565b6040516020818303038152906040527f245986f2000000000000000000000000000000000000000000000000000000007bffffffffffffffffffffffffffffffffffffffffffffffffffffffff19166020820180517bffffffffffffffffffffffffffffffffffffffffffffffffffffffff8381831617835250505050610beb565b50505050565b60008151905060006a636f6e736f6c652e6c6f679050602083016000808483855afa5050505050565b828054610c2090611577565b90600052602060002090601f016020900481019282610c425760008555610c89565b82601f10610c5b57805160ff1916838001178555610c89565b82800160010185558215610c89579182015b82811115610c88578251825591602001919060010190610c6d565b5b509050610c969190610c9a565b5090565b5b80821115610cb3576000816000905550600101610c9b565b5090565b6000610cca610cc5846113ca565b6113a5565b90508083825260208201905082856020860282011115610ce957600080fd5b60005b85811015610d3357813567ffffffffffffffff811115610d0b57600080fd5b808601610d188982610dba565b85526020850194506020840193505050600181019050610cec565b5050509392505050565b6000610d50610d4b846113f6565b6113a5565b905082815260208101848484011115610d6857600080fd5b610d73848285611535565b509392505050565b600081359050610d8a816117d3565b92915050565b600082601f830112610da157600080fd5b8135610db1848260208601610cb7565b91505092915050565b600082601f830112610dcb57600080fd5b8135610ddb848260208601610d3d565b91505092915050565b600060208284031215610df657600080fd5b6000610e0484828501610d7b565b91505092915050565b60008060408385031215610e2057600080fd5b6000610e2e85828601610d7b565b925050602083013567ffffffffffffffff811115610e4b57600080fd5b610e5785828601610dba565b9150509250929050565b60008060008060808587031215610e7757600080fd5b6000610e8587828801610d7b565b945050602085013567ffffffffffffffff811115610ea257600080fd5b610eae87828801610dba565b935050604085013567ffffffffffffffff811115610ecb57600080fd5b610ed787828801610d90565b925050606085013567ffffffffffffffff811115610ef457600080fd5b610f0087828801610dba565b91505092959194509250565b600060208284031215610f1e57600080fd5b600082013567ffffffffffffffff811115610f3857600080fd5b610f4484828501610dba565b91505092915050565b6000610f59838361113a565b905092915050565b610f6a816114f9565b82525050565b610f79816114f9565b82525050565b610f90610f8b826114f9565b6115da565b82525050565b6000610fa182611437565b610fab818561145a565b935083602082028501610fbd85611427565b8060005b85811015610ff95784840389528151610fda8582610f4d565b9450610fe58361144d565b925060208a01995050600181019050610fc1565b50829750879550505050505092915050565b600061101682611442565b6110208185611476565b9350611030818560208601611544565b611039816116eb565b840191505092915050565b600061104f82611442565b6110598185611487565b9350611069818560208601611544565b611072816116eb565b840191505092915050565b600061108882611442565b6110928185611498565b93506110a2818560208601611544565b80840191505092915050565b60006110bb600783611487565b91506110c682611709565b602082019050919050565b60006110de603083611487565b91506110e982611732565b604082019050919050565b6000611101602783611487565b915061110c82611781565b604082019050919050565b600061112460008361146b565b915061112f826117d0565b600082019050919050565b60006060830160008301516111526000860182610f61565b506020830151848203602086015261116a828261100b565b915050604083015161117f604086018261118a565b508091505092915050565b6111938161152b565b82525050565b6111a28161152b565b82525050565b60006111b4828461107d565b915081905092915050565b60006111cb828561107d565b91506111d78284610f7f565b6014820191508190509392505050565b60006111f282611117565b9150819050919050565b600060208201905081810360008301526112168184610f96565b905092915050565b600060208201905081810360008301526112388184611044565b905092915050565b6000604082019050818103600083015261125a8185611044565b90506112696020830184610f70565b9392505050565b6000608082019050818103600083015261128a8187611044565b90506112996020830186610f70565b81810360408301526112ab8185611044565b905081810360608301526112bf8184611044565b905095945050505050565b600060408201905081810360008301526112e48185611044565b90506112f36020830184611199565b9392505050565b60006020820190508181036000830152611313816110ae565b9050919050565b60006020820190508181036000830152611333816110d1565b9050919050565b60006020820190508181036000830152611353816110f4565b9050919050565b600060208201905061136f6000830184611199565b92915050565b600060408201905061138a6000830185611199565b818103602083015261139c8184611044565b90509392505050565b60006113af6113c0565b90506113bb82826115a9565b919050565b6000604051905090565b600067ffffffffffffffff8211156113e5576113e46116bc565b5b602082029050602081019050919050565b600067ffffffffffffffff821115611411576114106116bc565b5b61141a826116eb565b9050602081019050919050565b6000819050602082019050919050565b600081519050919050565b600081519050919050565b6000602082019050919050565b600082825260208201905092915050565b600081905092915050565b600082825260208201905092915050565b600082825260208201905092915050565b600081905092915050565b60006114ae8261152b565b91506114b98361152b565b9250827fffffffffffffffffffffffffffffffffffffffffffffffffffffffffffffffff038211156114ee576114ed61162f565b5b828201905092915050565b60006115048261150b565b9050919050565b600073ffffffffffffffffffffffffffffffffffffffff82169050919050565b6000819050919050565b82818337600083830152505050565b60005b83811015611562578082015181840152602081019050611547565b83811115611571576000848401525b50505050565b6000600282049050600182168061158f57607f821691505b602082108114156115a3576115a261168d565b5b50919050565b6115b2826116eb565b810181811067ffffffffffffffff821117156115d1576115d06116bc565b5b80604052505050565b60006115e5826115ec565b9050919050565b60006115f7826116fc565b9050919050565b60006116098261152b565b91506116148361152b565b9250826116245761162361165e565b5b828206905092915050565b7f4e487b7100000000000000000000000000000000000000000000000000000000600052601160045260246000fd5b7f4e487b7100000000000000000000000000000000000000000000000000000000600052601260045260246000fd5b7f4e487b7100000000000000000000000000000000000000000000000000000000600052602260045260246000fd5b7f4e487b7100000000000000000000000000000000000000000000000000000000600052604160045260246000fd5b6000601f19601f8301169050919050565b60008160601b9050919050565b7f5761697420316d00000000000000000000000000000000000000000000000000600082015250565b7f547279696e6720746f207769746864726177206d6f7265206d6f6e657920746860008201527f616e20636f6e7472616374206861732100000000000000000000000000000000602082015250565b7f4661696c656420746f207769746864726177206d6f6e65792066726f6d20636f60008201527f6e74726163742e00000000000000000000000000000000000000000000000000602082015250565b50565b6117dc816114f9565b81146117e757600080fd5b5056fe257320636173742061207370656c6c20257321205468657920616c736f20736169643a202573a2646970667358221220132984714da6c43b6b9999dca6763039291b5f6b500c6908e3950fdf5a1d0dae64736f6c63430008040033",
  "linkReferences": {},
  "deployedLinkReferences": {}
}