{
  "_format": "hh-sol-artifact-1",
  "contractName": "CastSpellPortal",
  "sourceName": "contracts/CastSpellPortal.sol",
  "abi": [
    {
      "inputs": [],
      "stateMutability": "payable",
      "type": "constructor"
    },
    {
      "anonymous": false,
      "inputs": [
        {
          "indexed": true,
          "internalType": "address",
          "name": "from",
          "type": "address"
        },
        {
          "indexed": false,
          "internalType": "uint256",
          "name": "timestamp",
          "type": "uint256"
        },
        {
          "indexed": false,
          "internalType": "string",
          "name": "message",
          "type": "string"
        },
        {
          "indexed": false,
          "internalType": "bool",
          "name": "isWinner",
          "type": "bool"
        }
      ],
      "name": "NewSpellCast",
      "type": "event"
    },
    {
      "anonymous": false,
      "inputs": [
        {
          "indexed": true,
          "internalType": "address",
          "name": "from",
          "type": "address"
        },
        {
          "indexed": false,
          "internalType": "uint256",
          "name": "prizeAmount",
          "type": "uint256"
        }
      ],
      "name": "PrizeWinner",
      "type": "event"
    },
    {
      "inputs": [
        {
          "internalType": "address",
          "name": "input",
          "type": "address"
        },
        {
          "internalType": "string",
          "name": "keyPrefix",
          "type": "string"
        },
        {
          "internalType": "string[]",
          "name": "sourceArray",
          "type": "string[]"
        },
        {
          "internalType": "string",
          "name": "_msg",
          "type": "string"
        }
      ],
      "name": "castSpell",
      "outputs": [],
      "stateMutability": "nonpayable",
      "type": "function"
    },
    {
      "inputs": [],
      "name": "getAllSpellsCast",
      "outputs": [
        {
          "components": [
            {
              "internalType": "address",
              "name": "spellCaster",
              "type": "address"
            },
            {
              "internalType": "string",
              "name": "message",
              "type": "string"
            },
            {
              "internalType": "uint256",
              "name": "timestamp",
              "type": "uint256"
            },
            {
              "internalType": "bool",
              "name": "isWinner",
              "type": "bool"
            }
          ],
          "internalType": "struct CastSpellPortal.Spell[]",
          "name": "",
          "type": "tuple[]"
        }
      ],
      "stateMutability": "view",
      "type": "function"
    },
    {
      "inputs": [
        {
          "internalType": "address",
          "name": "input",
          "type": "address"
        },
        {
          "internalType": "string",
          "name": "_msg",
          "type": "string"
        }
      ],
      "name": "getSpell",
      "outputs": [],
      "stateMutability": "nonpayable",
      "type": "function"
    },
    {
      "inputs": [],
      "name": "getSpellName",
      "outputs": [
        {
          "internalType": "string",
          "name": "",
          "type": "string"
        }
      ],
      "stateMutability": "view",
      "type": "function"
    },
    {
      "inputs": [],
      "name": "getTotalSpells",
      "outputs": [
        {
          "internalType": "uint256",
          "name": "",
          "type": "uint256"
        }
      ],
      "stateMutability": "view",
      "type": "function"
    },
    {
      "inputs": [],
      "name": "getWinnerCount",
      "outputs": [
        {
          "internalType": "uint256",
          "name": "",
          "type": "uint256"
        }
      ],
      "stateMutability": "view",
      "type": "function"
    },
    {
      "inputs": [
        {
          "internalType": "address",
          "name": "",
          "type": "address"
        }
      ],
      "name": "lastSpellCastAt",
      "outputs": [
        {
          "internalType": "uint256",
          "name": "",
          "type": "uint256"
        }
      ],
      "stateMutability": "view",
      "type": "function"
    },
    {
      "inputs": [
        {
          "internalType": "string",
          "name": "spell",
          "type": "string"
        }
      ],
      "name": "setSpell",
      "outputs": [],
      "stateMutability": "nonpayable",
      "type": "function"
    }
  ],
  "bytecode": "0x60806040526040518060e001604052806040518060400160405280600681526020017f52657061726f000000000000000000000000000000000000000000000000000081525081526020016040518060400160405280600581526020017f416363696f00000000000000000000000000000000000000000000000000000081525081526020016040518060400160405280601281526020017f57696e6761726469756d204c6576696f7361000000000000000000000000000081525081526020016040518060400160405280600781526020017f457069736b65790000000000000000000000000000000000000000000000000081525081526020016040518060400160405280600981526020017f416775616d656e7469000000000000000000000000000000000000000000000081525081526020016040518060400160405280600781526020017f50726f7465676f0000000000000000000000000000000000000000000000000081525081526020016040518060400160405280601181526020017f46696e69746520496e63616e746174656d0000000000000000000000000000008152508152506004906007620001bc92919062000302565b506040518060200160405280600081525060059080519060200190620001e492919062000369565b50620002306040518060400160405280601f81526020017f59657220612077697a61726421202e2e2e736d61727420636f6e7472616374008152506200023660201b62000a6d1760201c565b620005b4565b620002d6816040516024016200024d9190620004c8565b6040516020818303038152906040527f41304fac000000000000000000000000000000000000000000000000000000007bffffffffffffffffffffffffffffffffffffffffffffffffffffffff19166020820180517bffffffffffffffffffffffffffffffffffffffffffffffffffffffff8381831617835250505050620002d960201b60201c565b50565b60008151905060006a636f6e736f6c652e6c6f679050602083016000808483855afa5050505050565b82805482825590600052602060002090810192821562000356579160200282015b82811115620003555782518290805190602001906200034492919062000369565b509160200191906001019062000323565b5b509050620003659190620003fa565b5090565b82805462000377906200053e565b90600052602060002090601f0160209004810192826200039b5760008555620003e7565b82601f10620003b657805160ff1916838001178555620003e7565b82800160010185558215620003e7579182015b82811115620003e6578251825591602001919060010190620003c9565b5b509050620003f6919062000422565b5090565b5b808211156200041e576000818162000414919062000441565b50600101620003fb565b5090565b5b808211156200043d57600081600090555060010162000423565b5090565b5080546200044f906200053e565b6000825580601f1062000463575062000484565b601f01602090049060005260206000209081019062000483919062000422565b5b50565b60006200049482620004ec565b620004a08185620004f7565b9350620004b281856020860162000508565b620004bd81620005a3565b840191505092915050565b60006020820190508181036000830152620004e4818462000487565b905092915050565b600081519050919050565b600082825260208201905092915050565b60005b83811015620005285780820151818401526020810190506200050b565b8381111562000538576000848401525b50505050565b600060028204905060018216806200055757607f821691505b602082108114156200056e576200056d62000574565b5b50919050565b7f4e487b7100000000000000000000000000000000000000000000000000000000600052602260045260246000fd5b6000601f19601f8301169050919050565b61197b80620005c46000396000f3fe608060405234801561001057600080fd5b50600436106100885760003560e01c8063a08668371161005b578063a086683714610113578063a46c36371461012f578063de2dd19c1461014d578063fb9b4e441461016b57610088565b806357ffa3b91461008d5780637c74045d146100bd5780638b759f74146100d95780639fc4bf09146100f7575b600080fd5b6100a760048036038101906100a29190610f09565b610189565b6040516100b4919061149b565b60405180910390f35b6100d760048036038101906100d29190610f32565b6101a1565b005b6100e16102b7565b6040516100ee9190611374565b60405180910390f35b610111600480360381019061010c9190610f86565b610349565b005b61012d60048036038101906101289190611031565b610892565b005b6101376108ac565b604051610144919061149b565b60405180910390f35b6101556108b6565b6040516101629190611352565b60405180910390f35b610173610a22565b604051610180919061149b565b60405180910390f35b60066020528060005260406000206000915090505481565b6102b3826040518060400160405280600681526020017f5350454c4c5300000000000000000000000000000000000000000000000000008152506004805480602002602001604051908101604052809291908181526020016000905b828210156102a957838290600052602060002001805461021c906116d2565b80601f0160208091040260200160405190810160405280929190818152602001828054610248906116d2565b80156102955780601f1061026a57610100808354040283529160200191610295565b820191906000526020600020905b81548152906001019060200180831161027857829003601f168201915b5050505050815260200190600101906101fd565b5050505084610349565b5050565b6060600580546102c6906116d2565b80601f01602080910402602001604051908101604052809291908181526020018280546102f2906116d2565b801561033f5780601f106103145761010080835404028352916020019161033f565b820191906000526020600020905b81548152906001019060200180831161032257829003601f168201915b5050505050905090565b60006103758486604051602001610361929190611315565b604051602081830303815290604052610b06565b90506000838451836103879190611759565b815181106103be577f4e487b7100000000000000000000000000000000000000000000000000000000600052603260045260246000fd5b60200260200101519050600042603c600660003373ffffffffffffffffffffffffffffffffffffffff1673ffffffffffffffffffffffffffffffffffffffff1681526020019081526020016000205461041791906115f2565b10610457576040517f08c379a000000000000000000000000000000000000000000000000000000000815260040161044e9061143b565b60405180910390fd5b42600660003373ffffffffffffffffffffffffffffffffffffffff1673ffffffffffffffffffffffffffffffffffffffff1681526020019081526020016000208190555060016000808282546104ad91906115f2565b925050819055506000606460015442446104c791906115f2565b6104d191906115f2565b6104db9190611759565b905061051c6040518060400160405280601681526020017f52616e646f6d20232067656e6572617465643a2025730000000000000000000081525082610b39565b8060018190555060328110156106d45761056b6040518060400160405280600b81526020017f25732068617320776f6e2100000000000000000000000000000000000000000081525033610bd5565b60006509184e72a0009050478111156105b9576040517f08c379a00000000000000000000000000000000000000000000000000000000081526004016105b09061145b565b60405180910390fd5b60003373ffffffffffffffffffffffffffffffffffffffff16826040516105df9061133d565b60006040518083038185875af1925050503d806000811461061c576040519150601f19603f3d011682016040523d82523d6000602084013e610621565b606091505b5050905080610665576040517f08c379a000000000000000000000000000000000000000000000000000000000815260040161065c9061147b565b60405180910390fd5b60016002600082825461067891906115f2565b92505081905550600193503373ffffffffffffffffffffffffffffffffffffffff167fd94611724ed77e4dc6d5d2e477f44236376ce6bef8c1ac77f15b802d74cc4128836040516106c9919061149b565b60405180910390a250505b60008551146106eb576106e685610892565b6106f5565b6106f483610892565b5b60006106ff6102b7565b90506107416040518060400160405280601381526020017f257320636173742061207370656c6c20257321000000000000000000000000008152503383610c71565b600360405180608001604052803373ffffffffffffffffffffffffffffffffffffffff168152602001838152602001428152602001851515815250908060018154018082558091505060019003906000526020600020906004020160009091909190915060008201518160000160006101000a81548173ffffffffffffffffffffffffffffffffffffffff021916908373ffffffffffffffffffffffffffffffffffffffff1602179055506020820151816001019080519060200190610808929190610d39565b506040820151816002015560608201518160030160006101000a81548160ff02191690831515021790555050503373ffffffffffffffffffffffffffffffffffffffff167ff77188fcda8beac0ae42124eb06a6e5bf2f88266fe11ecaeed8d18748b13051342838660405161087f939291906114b6565b60405180910390a2505050505050505050565b80600590805190602001906108a8929190610d39565b5050565b6000600254905090565b60606003805480602002602001604051908101604052809291908181526020016000905b82821015610a1957838290600052602060002090600402016040518060800160405290816000820160009054906101000a900473ffffffffffffffffffffffffffffffffffffffff1673ffffffffffffffffffffffffffffffffffffffff1673ffffffffffffffffffffffffffffffffffffffff168152602001600182018054610963906116d2565b80601f016020809104026020016040519081016040528092919081815260200182805461098f906116d2565b80156109dc5780601f106109b1576101008083540402835291602001916109dc565b820191906000526020600020905b8154815290600101906020018083116109bf57829003601f168201915b50505050508152602001600282015481526020016003820160009054906101000a900460ff161515151581525050815260200190600101906108da565b50505050905090565b6000610a656040518060400160405280601f81526020017f5765206861766520256420746f74616c207370656c6c73206361737465642100815250600054610b39565b600054905090565b610b0381604051602401610a819190611374565b6040516020818303038152906040527f41304fac000000000000000000000000000000000000000000000000000000007bffffffffffffffffffffffffffffffffffffffffffffffffffffffff19166020820180517bffffffffffffffffffffffffffffffffffffffffffffffffffffffff8381831617835250505050610d10565b50565b600081604051602001610b1991906112fe565b6040516020818303038152906040528051906020012060001c9050919050565b610bd18282604051602401610b4f92919061140b565b6040516020818303038152906040527f9710a9d0000000000000000000000000000000000000000000000000000000007bffffffffffffffffffffffffffffffffffffffffffffffffffffffff19166020820180517bffffffffffffffffffffffffffffffffffffffffffffffffffffffff8381831617835250505050610d10565b5050565b610c6d8282604051602401610beb929190611396565b6040516020818303038152906040527f319af333000000000000000000000000000000000000000000000000000000007bffffffffffffffffffffffffffffffffffffffffffffffffffffffff19166020820180517bffffffffffffffffffffffffffffffffffffffffffffffffffffffff8381831617835250505050610d10565b5050565b610d0b838383604051602401610c89939291906113c6565b6040516020818303038152906040527fe0e9ad4f000000000000000000000000000000000000000000000000000000007bffffffffffffffffffffffffffffffffffffffffffffffffffffffff19166020820180517bffffffffffffffffffffffffffffffffffffffffffffffffffffffff8381831617835250505050610d10565b505050565b60008151905060006a636f6e736f6c652e6c6f679050602083016000808483855afa5050505050565b828054610d45906116d2565b90600052602060002090601f016020900481019282610d675760008555610dae565b82601f10610d8057805160ff1916838001178555610dae565b82800160010185558215610dae579182015b82811115610dad578251825591602001919060010190610d92565b5b509050610dbb9190610dbf565b5090565b5b80821115610dd8576000816000905550600101610dc0565b5090565b6000610def610dea84611519565b6114f4565b90508083825260208201905082856020860282011115610e0e57600080fd5b60005b85811015610e5857813567ffffffffffffffff811115610e3057600080fd5b808601610e3d8982610edf565b85526020850194506020840193505050600181019050610e11565b5050509392505050565b6000610e75610e7084611545565b6114f4565b905082815260208101848484011115610e8d57600080fd5b610e98848285611690565b509392505050565b600081359050610eaf8161192e565b92915050565b600082601f830112610ec657600080fd5b8135610ed6848260208601610ddc565b91505092915050565b600082601f830112610ef057600080fd5b8135610f00848260208601610e62565b91505092915050565b600060208284031215610f1b57600080fd5b6000610f2984828501610ea0565b91505092915050565b60008060408385031215610f4557600080fd5b6000610f5385828601610ea0565b925050602083013567ffffffffffffffff811115610f7057600080fd5b610f7c85828601610edf565b9150509250929050565b60008060008060808587031215610f9c57600080fd5b6000610faa87828801610ea0565b945050602085013567ffffffffffffffff811115610fc757600080fd5b610fd387828801610edf565b935050604085013567ffffffffffffffff811115610ff057600080fd5b610ffc87828801610eb5565b925050606085013567ffffffffffffffff81111561101957600080fd5b61102587828801610edf565b91505092959194509250565b60006020828403121561104357600080fd5b600082013567ffffffffffffffff81111561105d57600080fd5b61106984828501610edf565b91505092915050565b600061107e838361127d565b905092915050565b61108f81611648565b82525050565b61109e81611648565b82525050565b6110b56110b082611648565b611735565b82525050565b60006110c682611586565b6110d081856115a9565b9350836020820285016110e285611576565b8060005b8581101561111e57848403895281516110ff8582611072565b945061110a8361159c565b925060208a019950506001810190506110e6565b50829750879550505050505092915050565b6111398161165a565b82525050565b6111488161165a565b82525050565b600061115982611591565b61116381856115c5565b935061117381856020860161169f565b61117c81611846565b840191505092915050565b600061119282611591565b61119c81856115d6565b93506111ac81856020860161169f565b6111b581611846565b840191505092915050565b60006111cb82611591565b6111d581856115e7565b93506111e581856020860161169f565b80840191505092915050565b60006111fe6007836115d6565b915061120982611864565b602082019050919050565b60006112216030836115d6565b915061122c8261188d565b604082019050919050565b60006112446027836115d6565b915061124f826118dc565b604082019050919050565b60006112676000836115ba565b91506112728261192b565b600082019050919050565b60006080830160008301516112956000860182611086565b50602083015184820360208601526112ad828261114e565b91505060408301516112c260408601826112e0565b5060608301516112d56060860182611130565b508091505092915050565b6112e981611686565b82525050565b6112f881611686565b82525050565b600061130a82846111c0565b915081905092915050565b600061132182856111c0565b915061132d82846110a4565b6014820191508190509392505050565b60006113488261125a565b9150819050919050565b6000602082019050818103600083015261136c81846110bb565b905092915050565b6000602082019050818103600083015261138e8184611187565b905092915050565b600060408201905081810360008301526113b08185611187565b90506113bf6020830184611095565b9392505050565b600060608201905081810360008301526113e08186611187565b90506113ef6020830185611095565b81810360408301526114018184611187565b9050949350505050565b600060408201905081810360008301526114258185611187565b905061143460208301846112ef565b9392505050565b60006020820190508181036000830152611454816111f1565b9050919050565b6000602082019050818103600083015261147481611214565b9050919050565b6000602082019050818103600083015261149481611237565b9050919050565b60006020820190506114b060008301846112ef565b92915050565b60006060820190506114cb60008301866112ef565b81810360208301526114dd8185611187565b90506114ec604083018461113f565b949350505050565b60006114fe61150f565b905061150a8282611704565b919050565b6000604051905090565b600067ffffffffffffffff82111561153457611533611817565b5b602082029050602081019050919050565b600067ffffffffffffffff8211156115605761155f611817565b5b61156982611846565b9050602081019050919050565b6000819050602082019050919050565b600081519050919050565b600081519050919050565b6000602082019050919050565b600082825260208201905092915050565b600081905092915050565b600082825260208201905092915050565b600082825260208201905092915050565b600081905092915050565b60006115fd82611686565b915061160883611686565b9250827fffffffffffffffffffffffffffffffffffffffffffffffffffffffffffffffff0382111561163d5761163c61178a565b5b828201905092915050565b600061165382611666565b9050919050565b60008115159050919050565b600073ffffffffffffffffffffffffffffffffffffffff82169050919050565b6000819050919050565b82818337600083830152505050565b60005b838110156116bd5780820151818401526020810190506116a2565b838111156116cc576000848401525b50505050565b600060028204905060018216806116ea57607f821691505b602082108114156116fe576116fd6117e8565b5b50919050565b61170d82611846565b810181811067ffffffffffffffff8211171561172c5761172b611817565b5b80604052505050565b600061174082611747565b9050919050565b600061175282611857565b9050919050565b600061176482611686565b915061176f83611686565b92508261177f5761177e6117b9565b5b828206905092915050565b7f4e487b7100000000000000000000000000000000000000000000000000000000600052601160045260246000fd5b7f4e487b7100000000000000000000000000000000000000000000000000000000600052601260045260246000fd5b7f4e487b7100000000000000000000000000000000000000000000000000000000600052602260045260246000fd5b7f4e487b7100000000000000000000000000000000000000000000000000000000600052604160045260246000fd5b6000601f19601f8301169050919050565b60008160601b9050919050565b7f5761697420316d00000000000000000000000000000000000000000000000000600082015250565b7f547279696e6720746f207769746864726177206d6f7265206d6f6e657920746860008201527f616e20636f6e7472616374206861732100000000000000000000000000000000602082015250565b7f4661696c656420746f207769746864726177206d6f6e65792066726f6d20636f60008201527f6e74726163742e00000000000000000000000000000000000000000000000000602082015250565b50565b61193781611648565b811461194257600080fd5b5056fea2646970667358221220396f22264854f16a1562a38f9ab63726dc08aa6d445486d1837396126820c03664736f6c63430008040033",
  "linkReferences": {},
  "deployedLinkReferences": {}
}