{
  "_format": "hh-sol-artifact-1",
  "contractName": "CastSpellPortal",
  "sourceName": "contracts/CastSpellPortal.sol",
  "abi": [
    {
      "inputs": [],
      "stateMutability": "payable",
      "type": "constructor"
    },
    {
      "anonymous": false,
      "inputs": [
        {
          "indexed": true,
          "internalType": "address",
          "name": "from",
          "type": "address"
        },
        {
          "indexed": false,
          "internalType": "uint256",
          "name": "timestamp",
          "type": "uint256"
        },
        {
          "indexed": false,
          "internalType": "string",
          "name": "message",
          "type": "string"
        }
      ],
      "name": "NewSpellCast",
      "type": "event"
    },
    {
      "anonymous": false,
      "inputs": [
        {
          "indexed": true,
          "internalType": "address",
          "name": "from",
          "type": "address"
        },
        {
          "indexed": false,
          "internalType": "uint256",
          "name": "prizeAmount",
          "type": "uint256"
        }
      ],
      "name": "PrizeWinner",
      "type": "event"
    },
    {
      "inputs": [
        {
          "internalType": "address",
          "name": "input",
          "type": "address"
        },
        {
          "internalType": "string",
          "name": "keyPrefix",
          "type": "string"
        },
        {
          "internalType": "string[]",
          "name": "sourceArray",
          "type": "string[]"
        },
        {
          "internalType": "string",
          "name": "_msg",
          "type": "string"
        }
      ],
      "name": "castSpell",
      "outputs": [],
      "stateMutability": "nonpayable",
      "type": "function"
    },
    {
      "inputs": [],
      "name": "getAllSpellsCast",
      "outputs": [
        {
          "components": [
            {
              "internalType": "address",
              "name": "spellCaster",
              "type": "address"
            },
            {
              "internalType": "string",
              "name": "message",
              "type": "string"
            },
            {
              "internalType": "uint256",
              "name": "timestamp",
              "type": "uint256"
            }
          ],
          "internalType": "struct CastSpellPortal.Spell[]",
          "name": "",
          "type": "tuple[]"
        }
      ],
      "stateMutability": "view",
      "type": "function"
    },
    {
      "inputs": [
        {
          "internalType": "address",
          "name": "input",
          "type": "address"
        },
        {
          "internalType": "string",
          "name": "_msg",
          "type": "string"
        }
      ],
      "name": "getSpell",
      "outputs": [],
      "stateMutability": "nonpayable",
      "type": "function"
    },
    {
      "inputs": [],
      "name": "getSpellName",
      "outputs": [
        {
          "internalType": "string",
          "name": "",
          "type": "string"
        }
      ],
      "stateMutability": "view",
      "type": "function"
    },
    {
      "inputs": [],
      "name": "getTotalSpells",
      "outputs": [
        {
          "internalType": "uint256",
          "name": "",
          "type": "uint256"
        }
      ],
      "stateMutability": "view",
      "type": "function"
    },
    {
      "inputs": [
        {
          "internalType": "address",
          "name": "",
          "type": "address"
        }
      ],
      "name": "lastSpellCastAt",
      "outputs": [
        {
          "internalType": "uint256",
          "name": "",
          "type": "uint256"
        }
      ],
      "stateMutability": "view",
      "type": "function"
    },
    {
      "inputs": [
        {
          "internalType": "string",
          "name": "spell",
          "type": "string"
        }
      ],
      "name": "setSpell",
      "outputs": [],
      "stateMutability": "nonpayable",
      "type": "function"
    }
  ],
  "bytecode": "0x60806040526040518060e001604052806040518060400160405280600681526020017f52657061726f000000000000000000000000000000000000000000000000000081525081526020016040518060400160405280600581526020017f416363696f00000000000000000000000000000000000000000000000000000081525081526020016040518060400160405280601281526020017f57696e6761726469756d204c6576696f7361000000000000000000000000000081525081526020016040518060400160405280600781526020017f457069736b65790000000000000000000000000000000000000000000000000081525081526020016040518060400160405280600981526020017f416775616d656e7469000000000000000000000000000000000000000000000081525081526020016040518060400160405280600781526020017f50726f7465676f0000000000000000000000000000000000000000000000000081525081526020016040518060400160405280601181526020017f46696e69746520496e63616e746174656d0000000000000000000000000000008152508152506003906007620001bc92919062000302565b506040518060200160405280600081525060049080519060200190620001e492919062000369565b50620002306040518060400160405280601f81526020017f59657220612077697a61726421202e2e2e736d61727420636f6e7472616374008152506200023660201b620009db1760201c565b620005b4565b620002d6816040516024016200024d9190620004c8565b6040516020818303038152906040527f41304fac000000000000000000000000000000000000000000000000000000007bffffffffffffffffffffffffffffffffffffffffffffffffffffffff19166020820180517bffffffffffffffffffffffffffffffffffffffffffffffffffffffff8381831617835250505050620002d960201b60201c565b50565b60008151905060006a636f6e736f6c652e6c6f679050602083016000808483855afa5050505050565b82805482825590600052602060002090810192821562000356579160200282015b82811115620003555782518290805190602001906200034492919062000369565b509160200191906001019062000323565b5b509050620003659190620003fa565b5090565b82805462000377906200053e565b90600052602060002090601f0160209004810192826200039b5760008555620003e7565b82601f10620003b657805160ff1916838001178555620003e7565b82800160010185558215620003e7579182015b82811115620003e6578251825591602001919060010190620003c9565b5b509050620003f6919062000422565b5090565b5b808211156200041e576000818162000414919062000441565b50600101620003fb565b5090565b5b808211156200043d57600081600090555060010162000423565b5090565b5080546200044f906200053e565b6000825580601f1062000463575062000484565b601f01602090049060005260206000209081019062000483919062000422565b5b50565b60006200049482620004ec565b620004a08185620004f7565b9350620004b281856020860162000508565b620004bd81620005a3565b840191505092915050565b60006020820190508181036000830152620004e4818462000487565b905092915050565b600081519050919050565b600082825260208201905092915050565b60005b83811015620005285780820151818401526020810190506200050b565b8381111562000538576000848401525b50505050565b600060028204905060018216806200055757607f821691505b602082108114156200056e576200056d62000574565b5b50919050565b7f4e487b7100000000000000000000000000000000000000000000000000000000600052602260045260246000fd5b6000601f19601f8301169050919050565b61189e80620005c46000396000f3fe608060405234801561001057600080fd5b506004361061007d5760003560e01c80639fc4bf091161005b5780639fc4bf09146100ec578063a086683714610108578063de2dd19c14610124578063fb9b4e44146101425761007d565b806357ffa3b9146100825780637c74045d146100b25780638b759f74146100ce575b600080fd5b61009c60048036038101906100979190610e77565b610160565b6040516100a991906113d8565b60405180910390f35b6100cc60048036038101906100c79190610ea0565b610178565b005b6100d661028e565b6040516100e391906112b1565b60405180910390f35b61010660048036038101906101019190610ef4565b610320565b005b610122600480360381019061011d9190610f9f565b610825565b005b61012c61083f565b604051610139919061128f565b60405180910390f35b61014a610990565b60405161015791906113d8565b60405180910390f35b60056020528060005260406000206000915090505481565b61028a826040518060400160405280600681526020017f5350454c4c5300000000000000000000000000000000000000000000000000008152506003805480602002602001604051908101604052809291908181526020016000905b828210156102805783829060005260206000200180546101f3906115f5565b80601f016020809104026020016040519081016040528092919081815260200182805461021f906115f5565b801561026c5780601f106102415761010080835404028352916020019161026c565b820191906000526020600020905b81548152906001019060200180831161024f57829003601f168201915b5050505050815260200190600101906101d4565b5050505084610320565b5050565b60606004805461029d906115f5565b80601f01602080910402602001604051908101604052809291908181526020018280546102c9906115f5565b80156103165780601f106102eb57610100808354040283529160200191610316565b820191906000526020600020905b8154815290600101906020018083116102f957829003601f168201915b5050505050905090565b600061034c8486604051602001610338929190611252565b604051602081830303815290604052610a74565b905060008384518361035e919061167c565b81518110610395577f4e487b7100000000000000000000000000000000000000000000000000000000600052603260045260246000fd5b6020026020010151905042603c600560003373ffffffffffffffffffffffffffffffffffffffff1673ffffffffffffffffffffffffffffffffffffffff168152602001908152602001600020546103ec9190611521565b1061042c576040517f08c379a000000000000000000000000000000000000000000000000000000000815260040161042390611378565b60405180910390fd5b42600560003373ffffffffffffffffffffffffffffffffffffffff1673ffffffffffffffffffffffffffffffffffffffff1681526020019081526020016000208190555060016000808282546104829190611521565b9250508190555060006064600154424461049c9190611521565b6104a69190611521565b6104b0919061167c565b90506104f16040518060400160405280601681526020017f52616e646f6d20232067656e6572617465643a2025730000000000000000000081525082610aa7565b80600181905550603281101561068b576105406040518060400160405280600b81526020017f25732068617320776f6e2100000000000000000000000000000000000000000081525033610b43565b60006509184e72a00090504781111561058e576040517f08c379a000000000000000000000000000000000000000000000000000000000815260040161058590611398565b60405180910390fd5b60003373ffffffffffffffffffffffffffffffffffffffff16826040516105b49061127a565b60006040518083038185875af1925050503d80600081146105f1576040519150601f19603f3d011682016040523d82523d6000602084013e6105f6565b606091505b505090508061063a576040517f08c379a0000000000000000000000000000000000000000000000000000000008152600401610631906113b8565b60405180910390fd5b3373ffffffffffffffffffffffffffffffffffffffff167fd94611724ed77e4dc6d5d2e477f44236376ce6bef8c1ac77f15b802d74cc41288360405161068091906113d8565b60405180910390a250505b60008490506000815114156106a8576106a383610825565b6106b2565b6106b185610825565b5b60006106bc61028e565b90506106fe6040518060400160405280601381526020017f257320636173742061207370656c6c20257321000000000000000000000000008152503383610bdf565b600260405180606001604052803373ffffffffffffffffffffffffffffffffffffffff16815260200183815260200142815250908060018154018082558091505060019003906000526020600020906003020160009091909190915060008201518160000160006101000a81548173ffffffffffffffffffffffffffffffffffffffff021916908373ffffffffffffffffffffffffffffffffffffffff16021790555060208201518160010190805190602001906107bd929190610ca7565b506040820151816002015550503373ffffffffffffffffffffffffffffffffffffffff167faccb5308378d4e4866486a42ee5a65044c6168f4d808d627aa1ccb6b8215dd9a42836040516108129291906113f3565b60405180910390a2505050505050505050565b806004908051906020019061083b929190610ca7565b5050565b60606002805480602002602001604051908101604052809291908181526020016000905b8282101561098757838290600052602060002090600302016040518060600160405290816000820160009054906101000a900473ffffffffffffffffffffffffffffffffffffffff1673ffffffffffffffffffffffffffffffffffffffff1673ffffffffffffffffffffffffffffffffffffffff1681526020016001820180546108ec906115f5565b80601f0160208091040260200160405190810160405280929190818152602001828054610918906115f5565b80156109655780601f1061093a57610100808354040283529160200191610965565b820191906000526020600020905b81548152906001019060200180831161094857829003601f168201915b5050505050815260200160028201548152505081526020019060010190610863565b50505050905090565b60006109d36040518060400160405280601f81526020017f5765206861766520256420746f74616c207370656c6c73206361737465642100815250600054610aa7565b600054905090565b610a71816040516024016109ef91906112b1565b6040516020818303038152906040527f41304fac000000000000000000000000000000000000000000000000000000007bffffffffffffffffffffffffffffffffffffffffffffffffffffffff19166020820180517bffffffffffffffffffffffffffffffffffffffffffffffffffffffff8381831617835250505050610c7e565b50565b600081604051602001610a87919061123b565b6040516020818303038152906040528051906020012060001c9050919050565b610b3f8282604051602401610abd929190611348565b6040516020818303038152906040527f9710a9d0000000000000000000000000000000000000000000000000000000007bffffffffffffffffffffffffffffffffffffffffffffffffffffffff19166020820180517bffffffffffffffffffffffffffffffffffffffffffffffffffffffff8381831617835250505050610c7e565b5050565b610bdb8282604051602401610b599291906112d3565b6040516020818303038152906040527f319af333000000000000000000000000000000000000000000000000000000007bffffffffffffffffffffffffffffffffffffffffffffffffffffffff19166020820180517bffffffffffffffffffffffffffffffffffffffffffffffffffffffff8381831617835250505050610c7e565b5050565b610c79838383604051602401610bf793929190611303565b6040516020818303038152906040527fe0e9ad4f000000000000000000000000000000000000000000000000000000007bffffffffffffffffffffffffffffffffffffffffffffffffffffffff19166020820180517bffffffffffffffffffffffffffffffffffffffffffffffffffffffff8381831617835250505050610c7e565b505050565b60008151905060006a636f6e736f6c652e6c6f679050602083016000808483855afa5050505050565b828054610cb3906115f5565b90600052602060002090601f016020900481019282610cd55760008555610d1c565b82601f10610cee57805160ff1916838001178555610d1c565b82800160010185558215610d1c579182015b82811115610d1b578251825591602001919060010190610d00565b5b509050610d299190610d2d565b5090565b5b80821115610d46576000816000905550600101610d2e565b5090565b6000610d5d610d5884611448565b611423565b90508083825260208201905082856020860282011115610d7c57600080fd5b60005b85811015610dc657813567ffffffffffffffff811115610d9e57600080fd5b808601610dab8982610e4d565b85526020850194506020840193505050600181019050610d7f565b5050509392505050565b6000610de3610dde84611474565b611423565b905082815260208101848484011115610dfb57600080fd5b610e068482856115b3565b509392505050565b600081359050610e1d81611851565b92915050565b600082601f830112610e3457600080fd5b8135610e44848260208601610d4a565b91505092915050565b600082601f830112610e5e57600080fd5b8135610e6e848260208601610dd0565b91505092915050565b600060208284031215610e8957600080fd5b6000610e9784828501610e0e565b91505092915050565b60008060408385031215610eb357600080fd5b6000610ec185828601610e0e565b925050602083013567ffffffffffffffff811115610ede57600080fd5b610eea85828601610e4d565b9150509250929050565b60008060008060808587031215610f0a57600080fd5b6000610f1887828801610e0e565b945050602085013567ffffffffffffffff811115610f3557600080fd5b610f4187828801610e4d565b935050604085013567ffffffffffffffff811115610f5e57600080fd5b610f6a87828801610e23565b925050606085013567ffffffffffffffff811115610f8757600080fd5b610f9387828801610e4d565b91505092959194509250565b600060208284031215610fb157600080fd5b600082013567ffffffffffffffff811115610fcb57600080fd5b610fd784828501610e4d565b91505092915050565b6000610fec83836111cd565b905092915050565b610ffd81611577565b82525050565b61100c81611577565b82525050565b61102361101e82611577565b611658565b82525050565b6000611034826114b5565b61103e81856114d8565b935083602082028501611050856114a5565b8060005b8581101561108c578484038952815161106d8582610fe0565b9450611078836114cb565b925060208a01995050600181019050611054565b50829750879550505050505092915050565b60006110a9826114c0565b6110b381856114f4565b93506110c38185602086016115c2565b6110cc81611769565b840191505092915050565b60006110e2826114c0565b6110ec8185611505565b93506110fc8185602086016115c2565b61110581611769565b840191505092915050565b600061111b826114c0565b6111258185611516565b93506111358185602086016115c2565b80840191505092915050565b600061114e600783611505565b915061115982611787565b602082019050919050565b6000611171603083611505565b915061117c826117b0565b604082019050919050565b6000611194602783611505565b915061119f826117ff565b604082019050919050565b60006111b76000836114e9565b91506111c28261184e565b600082019050919050565b60006060830160008301516111e56000860182610ff4565b50602083015184820360208601526111fd828261109e565b9150506040830151611212604086018261121d565b508091505092915050565b611226816115a9565b82525050565b611235816115a9565b82525050565b60006112478284611110565b915081905092915050565b600061125e8285611110565b915061126a8284611012565b6014820191508190509392505050565b6000611285826111aa565b9150819050919050565b600060208201905081810360008301526112a98184611029565b905092915050565b600060208201905081810360008301526112cb81846110d7565b905092915050565b600060408201905081810360008301526112ed81856110d7565b90506112fc6020830184611003565b9392505050565b6000606082019050818103600083015261131d81866110d7565b905061132c6020830185611003565b818103604083015261133e81846110d7565b9050949350505050565b6000604082019050818103600083015261136281856110d7565b9050611371602083018461122c565b9392505050565b6000602082019050818103600083015261139181611141565b9050919050565b600060208201905081810360008301526113b181611164565b9050919050565b600060208201905081810360008301526113d181611187565b9050919050565b60006020820190506113ed600083018461122c565b92915050565b6000604082019050611408600083018561122c565b818103602083015261141a81846110d7565b90509392505050565b600061142d61143e565b90506114398282611627565b919050565b6000604051905090565b600067ffffffffffffffff8211156114635761146261173a565b5b602082029050602081019050919050565b600067ffffffffffffffff82111561148f5761148e61173a565b5b61149882611769565b9050602081019050919050565b6000819050602082019050919050565b600081519050919050565b600081519050919050565b6000602082019050919050565b600082825260208201905092915050565b600081905092915050565b600082825260208201905092915050565b600082825260208201905092915050565b600081905092915050565b600061152c826115a9565b9150611537836115a9565b9250827fffffffffffffffffffffffffffffffffffffffffffffffffffffffffffffffff0382111561156c5761156b6116ad565b5b828201905092915050565b600061158282611589565b9050919050565b600073ffffffffffffffffffffffffffffffffffffffff82169050919050565b6000819050919050565b82818337600083830152505050565b60005b838110156115e05780820151818401526020810190506115c5565b838111156115ef576000848401525b50505050565b6000600282049050600182168061160d57607f821691505b602082108114156116215761162061170b565b5b50919050565b61163082611769565b810181811067ffffffffffffffff8211171561164f5761164e61173a565b5b80604052505050565b60006116638261166a565b9050919050565b60006116758261177a565b9050919050565b6000611687826115a9565b9150611692836115a9565b9250826116a2576116a16116dc565b5b828206905092915050565b7f4e487b7100000000000000000000000000000000000000000000000000000000600052601160045260246000fd5b7f4e487b7100000000000000000000000000000000000000000000000000000000600052601260045260246000fd5b7f4e487b7100000000000000000000000000000000000000000000000000000000600052602260045260246000fd5b7f4e487b7100000000000000000000000000000000000000000000000000000000600052604160045260246000fd5b6000601f19601f8301169050919050565b60008160601b9050919050565b7f5761697420316d00000000000000000000000000000000000000000000000000600082015250565b7f547279696e6720746f207769746864726177206d6f7265206d6f6e657920746860008201527f616e20636f6e7472616374206861732100000000000000000000000000000000602082015250565b7f4661696c656420746f207769746864726177206d6f6e65792066726f6d20636f60008201527f6e74726163742e00000000000000000000000000000000000000000000000000602082015250565b50565b61185a81611577565b811461186557600080fd5b5056fea2646970667358221220e32c33f91f01f8dceff489c5d258fa4862efdf6c96f461764694d88a9388a93e64736f6c63430008040033",
  "linkReferences": {},
  "deployedLinkReferences": {}
}