{
  "_format": "hh-sol-artifact-1",
  "contractName": "CastSpellPortal",
  "sourceName": "contracts/CastSpellPortal.sol",
  "abi": [
    {
      "inputs": [],
      "stateMutability": "payable",
      "type": "constructor"
    },
    {
      "anonymous": false,
      "inputs": [
        {
          "indexed": true,
          "internalType": "address",
          "name": "from",
          "type": "address"
        },
        {
          "indexed": false,
          "internalType": "uint256",
          "name": "timestamp",
          "type": "uint256"
        },
        {
          "indexed": false,
          "internalType": "string",
          "name": "message",
          "type": "string"
        }
      ],
      "name": "NewSpellCast",
      "type": "event"
    },
    {
      "anonymous": false,
      "inputs": [
        {
          "indexed": true,
          "internalType": "address",
          "name": "from",
          "type": "address"
        },
        {
          "indexed": false,
          "internalType": "uint256",
          "name": "prizeAmount",
          "type": "uint256"
        }
      ],
      "name": "PrizeWinner",
      "type": "event"
    },
    {
      "inputs": [
        {
          "internalType": "address",
          "name": "input",
          "type": "address"
        },
        {
          "internalType": "string",
          "name": "keyPrefix",
          "type": "string"
        },
        {
          "internalType": "string[]",
          "name": "sourceArray",
          "type": "string[]"
        },
        {
          "internalType": "string",
          "name": "_msg",
          "type": "string"
        }
      ],
      "name": "castSpell",
      "outputs": [],
      "stateMutability": "nonpayable",
      "type": "function"
    },
    {
      "inputs": [],
      "name": "getAllSpellsCast",
      "outputs": [
        {
          "components": [
            {
              "internalType": "address",
              "name": "spellCaster",
              "type": "address"
            },
            {
              "internalType": "string",
              "name": "message",
              "type": "string"
            },
            {
              "internalType": "uint256",
              "name": "timestamp",
              "type": "uint256"
            }
          ],
          "internalType": "struct CastSpellPortal.Spell[]",
          "name": "",
          "type": "tuple[]"
        }
      ],
      "stateMutability": "view",
      "type": "function"
    },
    {
      "inputs": [
        {
          "internalType": "address",
          "name": "input",
          "type": "address"
        },
        {
          "internalType": "string",
          "name": "_msg",
          "type": "string"
        }
      ],
      "name": "getSpell",
      "outputs": [],
      "stateMutability": "nonpayable",
      "type": "function"
    },
    {
      "inputs": [],
      "name": "getSpellName",
      "outputs": [
        {
          "internalType": "string",
          "name": "",
          "type": "string"
        }
      ],
      "stateMutability": "view",
      "type": "function"
    },
    {
      "inputs": [],
      "name": "getTotalSpells",
      "outputs": [
        {
          "internalType": "uint256",
          "name": "",
          "type": "uint256"
        }
      ],
      "stateMutability": "view",
      "type": "function"
    },
    {
      "inputs": [],
      "name": "getWinnerCount",
      "outputs": [
        {
          "internalType": "uint256",
          "name": "",
          "type": "uint256"
        }
      ],
      "stateMutability": "view",
      "type": "function"
    },
    {
      "inputs": [
        {
          "internalType": "address",
          "name": "",
          "type": "address"
        }
      ],
      "name": "lastSpellCastAt",
      "outputs": [
        {
          "internalType": "uint256",
          "name": "",
          "type": "uint256"
        }
      ],
      "stateMutability": "view",
      "type": "function"
    },
    {
      "inputs": [
        {
          "internalType": "string",
          "name": "spell",
          "type": "string"
        }
      ],
      "name": "setSpell",
      "outputs": [],
      "stateMutability": "nonpayable",
      "type": "function"
    }
  ],
  "bytecode": "0x60806040526040518060e001604052806040518060400160405280600681526020017f52657061726f000000000000000000000000000000000000000000000000000081525081526020016040518060400160405280600581526020017f416363696f00000000000000000000000000000000000000000000000000000081525081526020016040518060400160405280601281526020017f57696e6761726469756d204c6576696f7361000000000000000000000000000081525081526020016040518060400160405280600781526020017f457069736b65790000000000000000000000000000000000000000000000000081525081526020016040518060400160405280600981526020017f416775616d656e7469000000000000000000000000000000000000000000000081525081526020016040518060400160405280600781526020017f50726f7465676f0000000000000000000000000000000000000000000000000081525081526020016040518060400160405280601181526020017f46696e69746520496e63616e746174656d0000000000000000000000000000008152508152506004906007620001bc92919062000302565b506040518060200160405280600081525060059080519060200190620001e492919062000369565b50620002306040518060400160405280601f81526020017f59657220612077697a61726421202e2e2e736d61727420636f6e7472616374008152506200023660201b62000a211760201c565b620005b4565b620002d6816040516024016200024d9190620004c8565b6040516020818303038152906040527f41304fac000000000000000000000000000000000000000000000000000000007bffffffffffffffffffffffffffffffffffffffffffffffffffffffff19166020820180517bffffffffffffffffffffffffffffffffffffffffffffffffffffffff8381831617835250505050620002d960201b60201c565b50565b60008151905060006a636f6e736f6c652e6c6f679050602083016000808483855afa5050505050565b82805482825590600052602060002090810192821562000356579160200282015b82811115620003555782518290805190602001906200034492919062000369565b509160200191906001019062000323565b5b509050620003659190620003fa565b5090565b82805462000377906200053e565b90600052602060002090601f0160209004810192826200039b5760008555620003e7565b82601f10620003b657805160ff1916838001178555620003e7565b82800160010185558215620003e7579182015b82811115620003e6578251825591602001919060010190620003c9565b5b509050620003f6919062000422565b5090565b5b808211156200041e576000818162000414919062000441565b50600101620003fb565b5090565b5b808211156200043d57600081600090555060010162000423565b5090565b5080546200044f906200053e565b6000825580601f1062000463575062000484565b601f01602090049060005260206000209081019062000483919062000422565b5b50565b60006200049482620004ec565b620004a08185620004f7565b9350620004b281856020860162000508565b620004bd81620005a3565b840191505092915050565b60006020820190508181036000830152620004e4818462000487565b905092915050565b600081519050919050565b600082825260208201905092915050565b60005b83811015620005285780820151818401526020810190506200050b565b8381111562000538576000848401525b50505050565b600060028204905060018216806200055757607f821691505b602082108114156200056e576200056d62000574565b5b50919050565b7f4e487b7100000000000000000000000000000000000000000000000000000000600052602260045260246000fd5b6000601f19601f8301169050919050565b6118e480620005c46000396000f3fe608060405234801561001057600080fd5b50600436106100885760003560e01c8063a08668371161005b578063a086683714610113578063a46c36371461012f578063de2dd19c1461014d578063fb9b4e441461016b57610088565b806357ffa3b91461008d5780637c74045d146100bd5780638b759f74146100d95780639fc4bf09146100f7575b600080fd5b6100a760048036038101906100a29190610ebd565b610189565b6040516100b4919061141e565b60405180910390f35b6100d760048036038101906100d29190610ee6565b6101a1565b005b6100e16102b7565b6040516100ee91906112f7565b60405180910390f35b610111600480360381019061010c9190610f3a565b610349565b005b61012d60048036038101906101289190610fe5565b610861565b005b61013761087b565b604051610144919061141e565b60405180910390f35b610155610885565b60405161016291906112d5565b60405180910390f35b6101736109d6565b604051610180919061141e565b60405180910390f35b60066020528060005260406000206000915090505481565b6102b3826040518060400160405280600681526020017f5350454c4c5300000000000000000000000000000000000000000000000000008152506004805480602002602001604051908101604052809291908181526020016000905b828210156102a957838290600052602060002001805461021c9061163b565b80601f01602080910402602001604051908101604052809291908181526020018280546102489061163b565b80156102955780601f1061026a57610100808354040283529160200191610295565b820191906000526020600020905b81548152906001019060200180831161027857829003601f168201915b5050505050815260200190600101906101fd565b5050505084610349565b5050565b6060600580546102c69061163b565b80601f01602080910402602001604051908101604052809291908181526020018280546102f29061163b565b801561033f5780601f106103145761010080835404028352916020019161033f565b820191906000526020600020905b81548152906001019060200180831161032257829003601f168201915b5050505050905090565b60006103758486604051602001610361929190611298565b604051602081830303815290604052610aba565b905060008384518361038791906116c2565b815181106103be577f4e487b7100000000000000000000000000000000000000000000000000000000600052603260045260246000fd5b6020026020010151905042603c600660003373ffffffffffffffffffffffffffffffffffffffff1673ffffffffffffffffffffffffffffffffffffffff168152602001908152602001600020546104159190611567565b10610455576040517f08c379a000000000000000000000000000000000000000000000000000000000815260040161044c906113be565b60405180910390fd5b42600660003373ffffffffffffffffffffffffffffffffffffffff1673ffffffffffffffffffffffffffffffffffffffff1681526020019081526020016000208190555060016000808282546104ab9190611567565b925050819055506000606460015442446104c59190611567565b6104cf9190611567565b6104d991906116c2565b905061051a6040518060400160405280601681526020017f52616e646f6d20232067656e6572617465643a2025730000000000000000000081525082610aed565b8060018190555060328110156106ce576105696040518060400160405280600b81526020017f25732068617320776f6e2100000000000000000000000000000000000000000081525033610b89565b60006509184e72a0009050478111156105b7576040517f08c379a00000000000000000000000000000000000000000000000000000000081526004016105ae906113de565b60405180910390fd5b60003373ffffffffffffffffffffffffffffffffffffffff16826040516105dd906112c0565b60006040518083038185875af1925050503d806000811461061a576040519150601f19603f3d011682016040523d82523d6000602084013e61061f565b606091505b5050905080610663576040517f08c379a000000000000000000000000000000000000000000000000000000000815260040161065a906113fe565b60405180910390fd5b6001600260008282546106769190611567565b925050819055503373ffffffffffffffffffffffffffffffffffffffff167fd94611724ed77e4dc6d5d2e477f44236376ce6bef8c1ac77f15b802d74cc4128836040516106c3919061141e565b60405180910390a250505b60008451146106e5576106e084610861565b6106ef565b6106ee82610861565b5b60006106f96102b7565b905061073b6040518060400160405280601381526020017f257320636173742061207370656c6c20257321000000000000000000000000008152503383610c25565b600360405180606001604052803373ffffffffffffffffffffffffffffffffffffffff16815260200183815260200142815250908060018154018082558091505060019003906000526020600020906003020160009091909190915060008201518160000160006101000a81548173ffffffffffffffffffffffffffffffffffffffff021916908373ffffffffffffffffffffffffffffffffffffffff16021790555060208201518160010190805190602001906107fa929190610ced565b506040820151816002015550503373ffffffffffffffffffffffffffffffffffffffff167faccb5308378d4e4866486a42ee5a65044c6168f4d808d627aa1ccb6b8215dd9a428360405161084f929190611439565b60405180910390a25050505050505050565b8060059080519060200190610877929190610ced565b5050565b6000600254905090565b60606003805480602002602001604051908101604052809291908181526020016000905b828210156109cd57838290600052602060002090600302016040518060600160405290816000820160009054906101000a900473ffffffffffffffffffffffffffffffffffffffff1673ffffffffffffffffffffffffffffffffffffffff1673ffffffffffffffffffffffffffffffffffffffff1681526020016001820180546109329061163b565b80601f016020809104026020016040519081016040528092919081815260200182805461095e9061163b565b80156109ab5780601f10610980576101008083540402835291602001916109ab565b820191906000526020600020905b81548152906001019060200180831161098e57829003601f168201915b50505050508152602001600282015481525050815260200190600101906108a9565b50505050905090565b6000610a196040518060400160405280601f81526020017f5765206861766520256420746f74616c207370656c6c73206361737465642100815250600054610aed565b600054905090565b610ab781604051602401610a3591906112f7565b6040516020818303038152906040527f41304fac000000000000000000000000000000000000000000000000000000007bffffffffffffffffffffffffffffffffffffffffffffffffffffffff19166020820180517bffffffffffffffffffffffffffffffffffffffffffffffffffffffff8381831617835250505050610cc4565b50565b600081604051602001610acd9190611281565b6040516020818303038152906040528051906020012060001c9050919050565b610b858282604051602401610b0392919061138e565b6040516020818303038152906040527f9710a9d0000000000000000000000000000000000000000000000000000000007bffffffffffffffffffffffffffffffffffffffffffffffffffffffff19166020820180517bffffffffffffffffffffffffffffffffffffffffffffffffffffffff8381831617835250505050610cc4565b5050565b610c218282604051602401610b9f929190611319565b6040516020818303038152906040527f319af333000000000000000000000000000000000000000000000000000000007bffffffffffffffffffffffffffffffffffffffffffffffffffffffff19166020820180517bffffffffffffffffffffffffffffffffffffffffffffffffffffffff8381831617835250505050610cc4565b5050565b610cbf838383604051602401610c3d93929190611349565b6040516020818303038152906040527fe0e9ad4f000000000000000000000000000000000000000000000000000000007bffffffffffffffffffffffffffffffffffffffffffffffffffffffff19166020820180517bffffffffffffffffffffffffffffffffffffffffffffffffffffffff8381831617835250505050610cc4565b505050565b60008151905060006a636f6e736f6c652e6c6f679050602083016000808483855afa5050505050565b828054610cf99061163b565b90600052602060002090601f016020900481019282610d1b5760008555610d62565b82601f10610d3457805160ff1916838001178555610d62565b82800160010185558215610d62579182015b82811115610d61578251825591602001919060010190610d46565b5b509050610d6f9190610d73565b5090565b5b80821115610d8c576000816000905550600101610d74565b5090565b6000610da3610d9e8461148e565b611469565b90508083825260208201905082856020860282011115610dc257600080fd5b60005b85811015610e0c57813567ffffffffffffffff811115610de457600080fd5b808601610df18982610e93565b85526020850194506020840193505050600181019050610dc5565b5050509392505050565b6000610e29610e24846114ba565b611469565b905082815260208101848484011115610e4157600080fd5b610e4c8482856115f9565b509392505050565b600081359050610e6381611897565b92915050565b600082601f830112610e7a57600080fd5b8135610e8a848260208601610d90565b91505092915050565b600082601f830112610ea457600080fd5b8135610eb4848260208601610e16565b91505092915050565b600060208284031215610ecf57600080fd5b6000610edd84828501610e54565b91505092915050565b60008060408385031215610ef957600080fd5b6000610f0785828601610e54565b925050602083013567ffffffffffffffff811115610f2457600080fd5b610f3085828601610e93565b9150509250929050565b60008060008060808587031215610f5057600080fd5b6000610f5e87828801610e54565b945050602085013567ffffffffffffffff811115610f7b57600080fd5b610f8787828801610e93565b935050604085013567ffffffffffffffff811115610fa457600080fd5b610fb087828801610e69565b925050606085013567ffffffffffffffff811115610fcd57600080fd5b610fd987828801610e93565b91505092959194509250565b600060208284031215610ff757600080fd5b600082013567ffffffffffffffff81111561101157600080fd5b61101d84828501610e93565b91505092915050565b60006110328383611213565b905092915050565b611043816115bd565b82525050565b611052816115bd565b82525050565b611069611064826115bd565b61169e565b82525050565b600061107a826114fb565b611084818561151e565b935083602082028501611096856114eb565b8060005b858110156110d257848403895281516110b38582611026565b94506110be83611511565b925060208a0199505060018101905061109a565b50829750879550505050505092915050565b60006110ef82611506565b6110f9818561153a565b9350611109818560208601611608565b611112816117af565b840191505092915050565b600061112882611506565b611132818561154b565b9350611142818560208601611608565b61114b816117af565b840191505092915050565b600061116182611506565b61116b818561155c565b935061117b818560208601611608565b80840191505092915050565b600061119460078361154b565b915061119f826117cd565b602082019050919050565b60006111b760308361154b565b91506111c2826117f6565b604082019050919050565b60006111da60278361154b565b91506111e582611845565b604082019050919050565b60006111fd60008361152f565b915061120882611894565b600082019050919050565b600060608301600083015161122b600086018261103a565b506020830151848203602086015261124382826110e4565b91505060408301516112586040860182611263565b508091505092915050565b61126c816115ef565b82525050565b61127b816115ef565b82525050565b600061128d8284611156565b915081905092915050565b60006112a48285611156565b91506112b08284611058565b6014820191508190509392505050565b60006112cb826111f0565b9150819050919050565b600060208201905081810360008301526112ef818461106f565b905092915050565b60006020820190508181036000830152611311818461111d565b905092915050565b60006040820190508181036000830152611333818561111d565b90506113426020830184611049565b9392505050565b60006060820190508181036000830152611363818661111d565b90506113726020830185611049565b8181036040830152611384818461111d565b9050949350505050565b600060408201905081810360008301526113a8818561111d565b90506113b76020830184611272565b9392505050565b600060208201905081810360008301526113d781611187565b9050919050565b600060208201905081810360008301526113f7816111aa565b9050919050565b60006020820190508181036000830152611417816111cd565b9050919050565b60006020820190506114336000830184611272565b92915050565b600060408201905061144e6000830185611272565b8181036020830152611460818461111d565b90509392505050565b6000611473611484565b905061147f828261166d565b919050565b6000604051905090565b600067ffffffffffffffff8211156114a9576114a8611780565b5b602082029050602081019050919050565b600067ffffffffffffffff8211156114d5576114d4611780565b5b6114de826117af565b9050602081019050919050565b6000819050602082019050919050565b600081519050919050565b600081519050919050565b6000602082019050919050565b600082825260208201905092915050565b600081905092915050565b600082825260208201905092915050565b600082825260208201905092915050565b600081905092915050565b6000611572826115ef565b915061157d836115ef565b9250827fffffffffffffffffffffffffffffffffffffffffffffffffffffffffffffffff038211156115b2576115b16116f3565b5b828201905092915050565b60006115c8826115cf565b9050919050565b600073ffffffffffffffffffffffffffffffffffffffff82169050919050565b6000819050919050565b82818337600083830152505050565b60005b8381101561162657808201518184015260208101905061160b565b83811115611635576000848401525b50505050565b6000600282049050600182168061165357607f821691505b6020821081141561166757611666611751565b5b50919050565b611676826117af565b810181811067ffffffffffffffff8211171561169557611694611780565b5b80604052505050565b60006116a9826116b0565b9050919050565b60006116bb826117c0565b9050919050565b60006116cd826115ef565b91506116d8836115ef565b9250826116e8576116e7611722565b5b828206905092915050565b7f4e487b7100000000000000000000000000000000000000000000000000000000600052601160045260246000fd5b7f4e487b7100000000000000000000000000000000000000000000000000000000600052601260045260246000fd5b7f4e487b7100000000000000000000000000000000000000000000000000000000600052602260045260246000fd5b7f4e487b7100000000000000000000000000000000000000000000000000000000600052604160045260246000fd5b6000601f19601f8301169050919050565b60008160601b9050919050565b7f5761697420316d00000000000000000000000000000000000000000000000000600082015250565b7f547279696e6720746f207769746864726177206d6f7265206d6f6e657920746860008201527f616e20636f6e7472616374206861732100000000000000000000000000000000602082015250565b7f4661696c656420746f207769746864726177206d6f6e65792066726f6d20636f60008201527f6e74726163742e00000000000000000000000000000000000000000000000000602082015250565b50565b6118a0816115bd565b81146118ab57600080fd5b5056fea2646970667358221220c39cd2b40bc1cdf3ad3be87fb7346fd6763de1a5729e48c201169036d2d14c4364736f6c63430008040033",
  "linkReferences": {},
  "deployedLinkReferences": {}
}